:0300000002038771
:0C038700787FE4F6D8FD7581390203CEC2
:10000E00752204752405752D64752B64E4F52AF5A7
:10001E0028F534F532F533F531752732752104F5AF
:10002E002FF52EF52CF530E53060030201A9052BD6
:10003E00052DF520F529F525F51FF526F5231204D6
:10004E0013EF0424F8602114601924FD601F14605E
:10005E000D24FD601D240B701C7523018017752661
:10006E00018012751F01800D752901800875200110
:10007E008003752501E523B4010CE52BC3952740BC
:10008E0005E4F52B0522E526B4010CE52BC39527D7
:10009E004005E4F52B1522E525B4010CE52DC3959D
:1000AE00274005E4F52D1524E529B4010CE52DC3F3
:1000BE0095274005E4F52D0524E52264096004E545
:1000CE00227005752C02800DE52464096004E52478
:1000DE007009752C017530010201A9E51FB4010CE0
:1000EE00E52870080528753102852233E520B40114
:1000FE000CE52A7008052A753207852434E5286038
:10010E0034B40713E533B5240E753001752C01E4B4
:10011E00F528F52E0201A9E52EB52117E4F52EE5F9
:10012E0028B40709E4F528F531F5338008052805CC
:10013E00318002052EE52A6033B40712E534B5226C
:10014E000D753001752C02E4F52AF52F804DE52F43
:10015E00B52117E4F52FE52AB40709E4F52AF5329F
:10016E00F5348008052A15328002052FE522FD7C24
:10017E0000750D0085240E750F0085311075110068
:10018E008533127513008532147515008534167B70
:10019E00087A007F011202BC020035E52CB401067C
:1001AE0012050F12047DE52CB4020612055012043E
:0801BE007DE530640160FA22C6
:0C060F007F017E267D82DDFEDEFADFF634
:01061B0022BC
:1005DF00D3EF9400EE940040147D6E7C00ED1D70FF
:0D05EF00011CED4C70F7EF1F70E61E80E35D
:0105FC0022DC
:1004CE0030202B202720302030202B2027203020BA
:1004DE0027202320204027202320204020201C20BE
:1004EE00202023202740304020201C2020202320A5
:1004FE00274030402B40404030802B4040403080E1
:01050E0000EC
:03000300013800C1
:03000B0002061CCE
:09061C00758CD8758AF11538328D
:1005FD00EF75F003A4FFAEF0EF1F70011E144E70E7
:01060D00F7F5
:01060E0022C9
:03000700DFFE22F7
:10047D00E4FD53890F438901758CD8758AF175A8F0
:10048D0082ED9004CE93FE7008FD7FE81200078088
:10049D00F0BEFF0A0D7F64120007C28C80E3AF052A
:1004AD000DEF9004CE93FCAF050DEF93F538D28C84
:1004BD00E5386009B295AF041205FD80F3C28C805A
:0104CD00C06E
:1005910000000000217F010000002745454539008A
:1005A1007FBFDFEFF7FBFDFE010204081020408052
:0805B100000000000000000042
:1005B900C2B6C2B5E4FEEFC4131313540124FF926B
:1005C900B4EF25E0FFD2B60000C2B60EBE08E7D2EE
:0505D900B50000C2B5F1
:0105DE0022FA
:0A02BC008F088C098D0A8A0B8B0C49
:1002C60078177C007D007BFF7A0579B17E007F0878
:1002D600120296E508601DE50A4509601774A8250F
:1002E6000AF58274053509F583E493FF741625082B
:1002F600F8EF26F6E50C450B601DE50E450D60177B
:1003060074A8250EF5827405350DF583E493FF7404
:1003160016250CF8EF26F6E510450F601DE512458B
:1003260011601774A82512F58274053511F583E45A
:1003360093FF74162510F8EF26F6E5144513601D95
:10034600E5164515601774A82516F582740535154A
:10035600F583E493FF74162514F8EF26F6E4F535D5
:10036600E4FF1205B9E5359005A193F580741725CC
:1003760035F8E6FF1205B90535E535C3940840E0C2
:010386002254
:10050F00E4F536F537E4F535E4FF1205B9E5359036
:10051F0005A193F580E53590059193FF1205B97FFD
:10052F000A7E001205DF0535E535C3940840D9056D
:10053F0037E53770020536C39432E536940040C56F
:01054F002289
:10055000E4F536F537E4F535E4FF1205B9E53590F5
:1005600005A193F580E53590059993FF1205B97FB4
:100570000A7E001205DF0535E535C3940840D9052C
:1005800037E53770020536C39432E536940040C52E
:010590002248
:10041300E4F508F53975900FE590640F60591206FD
:100423000FE590640F605075900FAF90EF24F56067
:100433001024FE601114601324077012E4F5398050
:100443000D7539018008753902800375390375907C
:10045300F0AF90EF2450601124E0601124F060119C
:1004630024707013853939800E74048006740880F3
:0904730002740C2539F539AF398A
:01047C00225D
:1003930002000EE493A3F8E493A34003F68001F272
:1003A30008DFF48029E493A3F85407240CC8C3336B
:1003B300C4540F4420C8834004F456800146F6DF3A
:1003C300E4800B0102040810204080900003E47EC7
:1003D300019360BCA3FF543F30E509541FFEE4932F
:1003E300A360010ECF54C025E060A840B8E493A3F6
:1003F300FAE493A3F8E493A3C8C582C8CAC583CA21
:10040300F0A3C8C582C8CAC583CADFE9DEE780BED8
:0100060000F9
:1001C600E709F608DFFA8046E709F208DFFA803E1B
:1001D60088828C83E709F0A3DFFA8032E309F60808
:1001E600DFFA8078E309F208DFFA807088828C8370
:1001F600E309F0A3DFFA806489828A83E0A3F60824
:10020600DFFA805889828A83E0A3F208DFFA804CFD
:1002160080D280FA80C680D4806980F280338010D4
:1002260080A680EA809A80A880DA80E280CA80333D
:1002360089828A83ECFAE493A3C8C582C8CCC583B5
:10024600CCF0A3C8C582C8CCC583CCDFE9DEE78085
:100256000D89828A83E493A3F608DFF9ECFAA9F004
:10026600EDFB2289828A83ECFAE0A3C8C582C8CC5A
:10027600C583CCF0A3C8C582C8CCC583CCDFEADE73
:10028600E880DB89828A83E493A3F208DFF980CCD5
:1002960088F0EF60010E4E60C388F0ED2402B404CE
:1002A6000050B9F582EB2402B4040050AF23234575
:0602B60082239002167382
:00000001FF
